:020000040800F2
:1000000000100020D91C0008AD8E0008AD8E00083D
:10001000AD8E0008AD8E0008AD8E0008AD8E0008D4
:10002000AD8E0008AD8E0008AD8E0008AD8E0008C4
:10003000AD8E0008AD8E0008AD8E0008AD8E0008B4
:10004000AD8E0008AD8E0008AD8E0008AD8E0008A4
:10005000AD8E0008AD8E0008AD8E0008AD8E000894
:10006000AD8E0008AD8E0008AD8E00081914000892
:10007000E5870008AD8E0008AD8E0008AD8E000843
:10008000AD8E0008AD8E0008AD8E0008AD8E000864
:10009000AD8E0008B1250008AD8E0008AD8E0008B9
:1000A000AD8E0008AD8E0008AD8E0008AD8E000844
:1000B000AD8E0008AD8E0008AD8E0008AD8E000834
:1000C000AD8E0008AD8E0008AD8E0008AD8E000824
:1000D000AD8E0008AD8E0008AD8E0008AD8E000814
:1000E000AD8E0008AD8E0008AD8E0008AD8E000804
:1000F000AD8E0008AD8E0008AD8E0008AD8E0008F4
:10010000AD8E0008AD8E0008AD8E0008AD8E0008E3
:10011000AD8E0008AD8E0008AD8E0008AD8E0008D3
:10012000AD8E0008AD8E0008AD8E0008AD8E0008C3
:10013000AD8E0008AD8E0008AD8E0008AD8E0008B3
:10014000AD8E0008AD8E0008AD8E0008D792000875
:10015000AD8E0008AD8E0008AD8E0008AD8E000893
:10016000AD8E0008AD8E0008AD8E0008AD8E000883
:10017000013800D0FCE770470A2307B5022100933D
:10018000074805A3D3E9002306F02CFD03B05DF872
:1001900004FB00BFAFF300800000004033935940E0
:1001A000969A000800000000B7EE007AC7EE007AC9
:1001B00010B580ED140AC0ED157A044610EE100A51
:1001C00005F070FC02460B4605A1D1E9000105F0DF
:1001D000EBFD05F081FFA06510BD00BFAFF300800F
:1001E000399D52A246DF913F2DE9F0432DED048B5E
:1001F000884600F15C05044690ED098AD0ED0A8A34
:1002000090ED0B9A85B02846174610EE106A08F05C
:10021000DDFDB8F1000F53D0606A05F043FC46A342
:10022000D3E900238046894605F01AFF002847D00D
:1002300043A3D3E900234046494605F007FF0028C1
:100240003ED0A06A05F02EFC3BA3D3E900238046F4
:10025000894605F005FF98B339A3D3E9002340464A
:10026000494605F0F3FE58B3B5EEC09AF1EE10FA28
:10027000B1EE488AB1EE680A04F1680825DB07F0A0
:100280001DFF8DED010AB0EE480A07F017FFB1EE31
:10029000400A2846424601A98DED020A039608F05D
:1002A000CDFD284608F085FD0FB900236366D4ED27
:1002B000147AB6EE000A284680EE270A08F09EFD62
:1002C00005B0BDEC048BBDE8F08307F0F7FE10EE3F
:1002D000100A05F0E7FB02460B461BA1D1E900011D
:1002E00005F080FA05F0F8FEB0EE480A019007F03C
:1002F000E5FEB1EE400A30468DED020A05F0D2FB74
:1003000011A3D3E9002305F06FFA05F0E5FE039091
:1003100001A808F04EFD4246284601A908F08EFDCE
:10032000284608F046FDD4ED187AF1EE677AC4ED60
:10033000187AB9E7AFF30080C139234A7B83EFBF56
:10034000C139234A7B83EF3F182D4454FB210940D8
:100350002DE9F0471EA7D7E900670FF27C09D9E91C
:1003600000898246DAF8000005F09CFB32463B46E5
:1003700004460D4605F074FE98B90FF26409D9E9F8
:10038000008915A7D7E90067DAF8000005F08AFBB5
:1003900042464B4604460D4605F04EFE60B9BDE8A8
:1003A000F08742464B462046294605F01BFA05F0E9
:1003B00093FECAF80000D5E732463B462046294660
:1003C00005F012FA05F088FECAF80000DCE700BF6D
:1003D000182D4454FB210940182D4454FB21194089
:1003E000182D4454FB2109C02DE9F04F456A0446FD
:1003F00010EE10AA2DED048B93B057EC106BDDF8C6
:100400008080BB46069109920C9375B9102006F0C6
:10041000DBFE0246606220B9A74BEA21A74807F03D
:1004200017FDC0E901550560C560636A196851B1DF
:100430005A680123204693404A608B6006F00CFF07
:10044000636A00221A603B1EADBF0023012223F025
:10045000004BC8F800309A4BB8BFC8F8002033EA08
:100460000B031BD142F20F730C9A1360CBF31303EF
:10047000334300F08F85219B63B9924B22E0924B6E
:1004800001930833219A1360019813B0BDEC048BDB
:10049000BDE8F08F8B4B01930333F3E70022002379
:1004A0005046594605F0BEFD80464BEC19AB58B19D
:1004B00001230C9A1360219B002B00F06885834870
:1004C0001860431E0193DFE7CBF30A5510AA11A968
:1004D00020464BEC10AB07F041F908EE100A002D56
:1004E00000F0828019EE903A5646A5F2FF35CDF81D
:1004F0003880C3F3130343F07F5747F440170022BB
:10050000734B3046394605F06DF965A3D3E90023F6
:1005100005F020FB64A3D3E9002305F065F9064646
:100520000F46284605F0ACFA61A3D3E9002305F095
:1005300011FB02460B463046394605F055F9064692
:100540000F4605F0A1FD00220090002330463946F9
:1005500005F072FD50B1009805F092FA32463B4624
:1005600005F060FD10B9009B013B0093009B162B2A
:1005700059D8009A574B03EBC20351EC190BD3E93E
:10058000002305F059FD00284FD0009B013B00934C
:1005900000230B93109B5D1B6B1E059349BFC5F198
:1005A000010300230493002354BF04930593009B8D
:1005B000002B3CDB059B009A13440A920593002311
:1005C0000793069B092B00F28980052BC5BF043BCE
:1005D000002501250693069B023B032B00F2898030
:1005E000DFE803F02E3B395ADDE910531D4405F2D4
:1005F0003243202BC6BFC3F1400305F21240C3F1C2
:10060000200305F1FF35C5BF0BFA03F326FA00F00E
:1006100006FA03F0184305F023FA01230646A1F178
:10062000F8770E936BE70123B3E70B90B2E7049BD7
:10063000009A9B1A04935342079300230A93C0E73E
:1006400000230893099B002B56DC01231A46CDE9B1
:10065000023309920CE00123F3E70023099A08937F
:10066000009B134402930133012B0393B8BF012372
:100670000022606A4260042202F1140641689E4230
:100680003ED9204606F0A8FD019000283CD1124B2F
:1006900002464FF4D571C1E60123DFE7AFF30080D6
:1006A00061436F63A787D23FB3C8608B288AC63F78
:1006B000FB799F501344D33F81A3000898A30008FF
:1006C0000000F07F7DA3000874A3000851A3000878
:1006D0000000F83F30A5000816A4000801250023FB
:1006E000089506934FF0FF330022CDE90233122321
:1006F000AFE701230893F5E7099BCDE90233B7E79C
:10070000013152004160B7E7636A019A1A60039BA6
:100710000E2B00F29D80002D00F09A80009B002B94
:1007200032DD03F00F03B64A02EBC303D3E90089BD
:10073000009BD8054FEA231716D5B24B07F00F07D9
:100740000325D3E9082351EC190B05F02DFB824654
:100750008B46AC4E57B942464B465046594605F07B
:1007600023FB82468B4628E00225F2E7F90708D5ED
:10077000404649460135D6E9002305F0EBF98046AD
:1007800089467F100836E5E700F09B80009B022534
:100790009C4F5E429A4B06F00F02361103EBC203E8
:1007A00051EC190BD3E9002305F0D4F9002382465C
:1007B0008B46002E7AD1002BD3D10B9B002B00F05F
:1007C00082800022904B5046594605F035FC0028A7
:1007D00079D0039B002B76D0029B002B36DD009B4B
:1007E0005046594600225F1E884B05F0B3F901358B
:1007F00082468B46029E2846D04605F041F9524675
:100800005B46D94605F0A6F90022814B04F0ECFFC7
:100810008246A1F1507B002E58D100227D4B4046EC
:10082000494604F0DFFF52465B468046894605F0A4
:1008300021FC002840F0938252460BF100434046D1
:10084000494605F0F9FB002840F087825BEC19ABC4
:10085000119B002BC0F24881009A0E2A00F34481BC
:10086000674B03EBC203D3E90089099B002B80F29D
:10087000D580039B002B00F3D18040F06D820022D5
:10088000644B4046494605F065F952465B4605F023
:10089000E7FB039E3746002840F043823123019D49
:1008A00005F8013B009B013300933EE2F20705D5BA
:1008B0000135D7E9002305F04DF9012376100837FB
:1008C00077E7022579E7009F039E94E701994C4B57
:1008D000314403EBC6030D91089953E90223002923
:1008E00043D000204C4905F05FFA52465B4604F0C5
:1008F00079FF019D82468B464946404605F0C4FB80
:10090000064605F0BDF8024630360B4640464946DD
:1009100004F068FF52465B4605F8016B8046894645
:1009200005F08AFB002863D142464B460020364939
:1009300004F058FF52465B4605F07EFB002840F06D
:10094000B5800D9B9D4281D00022304B50465946C8
:1009500005F000F9002282468B46404649462B4B63
:1009600005F0F8F880468946C6E75046594605F036
:10097000F1F80D9B82468B46019D0F9349464046F8
:1009800005F082FB064605F07BF802460B46404622
:100990004946303604F026FF0D9B05F8016B804672
:1009A0009D4289464FF0000224D11B4B50465946C8
:1009B00004F01AFF02460B464046494605F05AFB32
:1009C000002873D152465B460020134904F00AFF09
:1009D00002460B464046494605F02EFB00283FF4F0
:1009E00035AF0F9D6B1E0F9315F8013C302BF8D0DF
:1009F000009749E0054B05F0ADF880468946BDE714
:100A000030A5000808A500080000F03F00002440C1
:100A100000001C40000014400000E03F56465F46C6
:100A2000019D42464B463046394605F0BDF905F07A
:100A30002BFB824605F024F842464B4605F08AF827
:100A4000024630460AF130060B46394604F0CAFE2B
:100A500005F8016B019E0246039F0B46AE1BB74291
:100A600035D104F0C1FE42464B4606460F4605F01E
:100A700001FBD0B942464B463046394605F0D2FA22
:100A800010B11AF0010F10D1204618EE101A06F01E
:100A9000E3FB002300982B7001300C9B1860219B16
:100AA000002B3FF4F1AC1D60EEE4009F2B461D4689
:100AB00013F8012D392A06D1019A9A42F7D1302232
:100AC000019901370A701A7801321A7090E70022F2
:100AD000A44B05F03FF80022002306460F4605F020
:100AE000A1FA00289DD0CFE7089A002A00F0D5800F
:100AF000069A012A00F3B9800E9A002A00F0B1800C
:100B000003F23343079E049D049A012120461A44B0
:100B10000492059A1A44059206F008FC0746002D37
:100B20000CDD059B002B09DDAB42049AA8BF2B46C8
:100B3000D21AED1A0492059AD31A0593079B1BB398
:100B4000089B002B00F0AD80002E13DD39463246A5
:100B5000204606F0A9FC18EE102A0146074620465A
:100B600006F0FAFB804618EE101A204608EE108AAE
:100B700006F072FB079B9A1B06D018EE101A20464F
:100B800006F092FC08EE100A0121204606F0CEFB8A
:100B90000A9B0646002B40F386801A4601462046F3
:100BA00006F082FC069B0646012B7FDD4FF0000815
:100BB000336906EB8303186908F012FEC0F12000C8
:100BC000059B184410F01F0000F09180C0F1200335
:100BD000042B40F38980C0F11C00049B05440344AE
:100BE0000493059B03440593049B002B07DD18EE3B
:100BF000101A1A46204606F0B1FC08EE100A059BB2
:100C0000002B05DD31461A46204606F0A7FC0646B5
:100C10000B9B002B6DD0314618EE100A08F02FFE0A
:100C2000002866DA009B18EE101A0A222046013BC3
:100C30000093002306F032FB089B08EE100A002BFD
:100C400000F0AF81002339460A22204606F026FB39
:100C5000029B0746002B00F38D80069B022B50DC85
:100C600088E0109BC3F136034CE7039B5E1E079B95
:100C7000B342B7BF079B9E1B0796F21ABFBF0A9BE2
:100C800000269B180A93039B002BB7BFDDE90323C3
:100C9000DDE903359D1A002336E7079E049D089F72
:100CA0003DE7079A69E7069B012B18DCBAF1000FB4
:100CB00015D1CBF3130393B92BF000431B0D1B0588
:100CC00083B1049B4FF0010801330493059B01336A
:100CD00005930A9B002B7FF46BAF012070E74FF068
:100CE0000008F6E79846F4E73FF47EAF18461C305C
:100CF00073E7039B002B37DC069B022B34DD039B41
:100D00000293029B6BB931460522204606F0C6FAD3
:100D10000146064618EE100A08F0B1FD00283FF71C
:100D2000BDAD099B019DDB4300934FF000083146A8
:100D3000204606F091FA002F3FF4A6AEB8F1000F5E
:100D400005D0B84503D04146204606F085FA39461D
:100D5000204606F081FA97E600263746E1E700973D
:100D600037469BE500002440089B002B00F0CA801A
:100D7000039B0293002D05DD39462A46204606F0E6
:100D8000EDFB0746B8F1000F5BD07968204606F00E
:100D900023FA054628B9874B024640F2EA21FFF7BD
:100DA0003DBB3A6907F10C010C300232920008F0A9
:100DB000C7FA01222946204606F0D0FB019BB8461F
:100DC000074603F10109DDE90123134405930AF005
:100DD00001030493314618EE100A08F0E8FB41467F
:100DE000029000F1300A18EE100A09F1FF3B08F0FA
:100DF00046FD3A4603903146204606F01FFCC26885
:100E0000054602BB014618EE100A08F038FD0246FE
:100E100029462046079206F01FFA4D46DDE90632C4
:100E200043EA0201049B0B430FD1BAF1390F2AD0D8
:100E3000039B002B02DD029B03F1310A8BF800A01B
:100E400075E73846BAE70122E2E7039B002B04DB93
:100E500006990B4304990B4322D1002AEEDD18EECC
:100E6000101A0122204606F079FB314608EE100ADE
:100E700008F005FD002803DCE0D11AF0010FDDD0F9
:100E8000BAF1390FD7D139238BF800302B461D46E4
:100E9000013B15F8012C392A70D001321A7046E74F
:100EA000002A07DDBAF1390FEDD00AF101038BF802
:100EB00000303CE7059B09F801AC994546D018EE97
:100EC000101A00230A22204606F0E8F9B84508EE79
:100ED000100A4FF000034FF00A024146204606D1A7
:100EE00006F0DCF98046074609F1010972E706F0D1
:100EF000D5F93946804600230A22204606F0CEF96D
:100F00000746F1E7039B0293019D314618EE100A54
:100F100008F04DFB019B00F1300A05F801ABEA1A1D
:100F2000029B934209DD18EE101A00230A22204684
:100F300006F0B4F908EE100AE7E7029B4FF000084C
:100F4000002BCCBF1D460125019B1D4418EE101A35
:100F50000122204606F002FB314608EE100A08F096
:100F60008EFC002892DC02D11AF0010F8ED12B46A4
:100F70001D4613F8012D302AFAD0D8E6019A9A427C
:100F800085D1009B0133009331231370CFE60A4BC8
:100F9000FFF798BA219B002B7FF471AA074BFFF74C
:100FA00091BA029B002BAFDC069B022B3FF7A9AE48
:100FB000AAE700BF16A4000850A3000874A3000805
:100FC00010B5054C237833B9044B13B1044800E045
:100FD00000BF0123237010BDFC11002000000000A1
:100FE00098A6000808B5034B1BB10349034800E06D
:100FF00000BF08BD000000000012002098A60008F5
:10100000A3F5803A704700BF174B002B08BF134B66
:101010009D46FFF7F5FF00218B460F461348144A03
:10102000121A08F09AF90E4B002B00D098470D4B7E
:10103000002B00D098470020002104000D000D482F
:10104000002802D00C4800E000BF05F04BFA200059
:10105000290007F037FB05F01FFA00BF0000080069
:10106000000000000000000000100020FC11002023
:1010700000160020000000000000000008B500F08D
:1010800023F800F099F8054B1B781BB9BDE8084020
:1010900000F0C4B8BDE8084000F0E6B87E150020B6
:1010A000002310B5074C194620680222806805F01D
:1010B000B1FD002320680222BDE8104019464068B7
:1010C00005F0A8BD1410002010B505F0F9F941B2E3
:1010D000002944DD224A0D29137801D00A2921D1A3
:1010E0000020204C1070E054742938D1002310786F
:1010F0001C4913700B541C4808F047FA1949C0B931
:1011000007F0CBFA012000F095F8184804F028F910
:101110000120174B187000F05DF8BDE8104000206A
:1011200007F0DABA4E2B9FBF0E4CE0540133137018
:10113000DAE7104808F029FA0A490028E0D00E48FA
:1011400008F023FA044650B900F074F8084B1C70FC
:1011500000F050F82046BDE8104000F03BB810BD4C
:10116000CF1500207F1500208E9A0008381200202D
:101170007E150020849A00088B9A00080122014BFA
:101180001A707047D015002007B5002301224FF4D4
:10119000FA71CDE900320548054A04F071F90548B5
:1011A00003B05DF804EB07F0A7BE00BF18120020E3
:1011B0007D1100089C9B000810B5044C237823B1D6
:1011C000034807F09FFE0023237010BDD0150020B8
:1011D000B49B000810B9034807F08EBE014807F021
:1011E0008EBE00BF9C9B00080122014B1A70704705
:1011F000E8110020002307B54FF47A71CDE90033E0
:10120000044A054804F03CF903B05DF804EBFEF72E
:10121000B3BF00BFE91100083812002010B5044C1C
:1012200023781BB1FEF7A8FF0023237010BD00BF79
:10123000E811002010B5044600F0C2FB54B178B9A3
:1012400000F090FB00B1FEE79FED060ABDE81040FC
:1012500000F0BCBB012803D1BDE8104000F0A8BBE2
:1012600010BD00BF9A99CC4238B50D4C0D4D217878
:1012700001EB410105EB81000146063007F010FA51
:1012800028B923780133DBB20A2B01D0237038BD93
:10129000294620707822BDE8384007F02ABA00BFFE
:1012A000D11500200415002003289EBF0022024B08
:1012B00043F82020704700BF581200200246032840
:1012C0009FBF044951F82030581C41F8220088BFC4
:1012D000002070475812002010B5224C02F08AF905
:1012E000236F23F0070343F00203236707F06EFE2A
:1012F000D4F82031002023F0070343F00103C4F8A1
:101300002031D4F8283123F0070343F00103C4F857
:101310002831D4F8403123F0030343F00203C4F82A
:101320004031D4F8603123F0030343F00203C4F8E2
:101330006031D4F8403223F0030343F00203C4F8D1
:101340004032D4F8003223F0070343F00203C4F81C
:101350000032D4F8083223F0070343F00203C4F844
:10136000083210BD0080005030B5244D9DB008AC4F
:101370000FCD0FC495E80F0084E80F004FF46123F0
:101380002C22002111A80A9307F0E7FF1C4B102222
:10139000109356231293052301241593062300214D
:1013A0000DEB02008DF84540179307F0D6FF4FF480
:1013B0007020144B08AACDE902030B238DF81030DE
:1013C0000C238DF81130104B104805932023069301
:1013D0000F4B02A9009310AB8DF81D4003F028FBC2
:1013E000044618B17C210B4807F069FD00214FF439
:1013F000612007F043FA20461DB030BD7C9B0008F9
:101400000000015B3C00015BD2150020CC120020E3
:10141000681200204D9B0008014807F0CABE00BFBB
:10142000CC12002008B5044807F063FDBDE8084071
:10143000024807F05EBD00BF9C9B0008B49B0008FB
:10144000082808B504D00FDC022809DC002809DDD3
:10145000012304220921022002F01AFF002008BD06
:101460000428F5D0D82106E02028F1D0402807D064
:101470001028F7D1B921044807F021FD0E20EEE72E
:10148000012304220821E6E7CC9B00088022014BBF
:101490001A64704700D003508022014B1A647047D1
:1014A00000E0035070B514460D4640F080010A4834
:1014B000FFF7F2FF07F0D4FD074E2544AC4203D1FD
:1014C000FFF7E4FF002070BD0021304607F0C8FDA3
:1014D00004F8010BF2E700BF00000A5038B50C46D3
:1014E000074D00F07F012846FFF7D6FF07F0B8FD53
:1014F0002146284607F0B4FDFFF7C8FF002038BD9D
:1015000000000A5070B5264C8EB0264601AD0FCEB5
:1015100014340FC50FCC06AD0FC594E80F0085E855
:101520000F00204B0121039306AB05934FF480730A
:101530005720ADF81C3001F0EBFB01213A2001F0FF
:10154000E7FB002304220321022002F0A1FE022176
:1015500000230846012202F09BFE00230422012101
:10156000022002F095FE012304220721002002F050
:101570008FFE0D4801A902F041FD0C4B0C4A0020E2
:10158000C3F8CC244FF00212C3F8C424A2F5803271
:10159000C3F8C8241C22C3F8B4240EB070BD00BF29
:1015A000A09C0008A05A320000000A5000C003505E
:1015B0000200030013B510EE100A04F073FA02469D
:1015C0000B4600201A4904F0EFFB0022194B04F0EF
:1015D00009F904F081FD9FED187A07EE900AF4EE08
:1015E000C77AF1EE10FA1FDCF5EEC07AF1EE10FAD0
:1015F00001D5DFED127AFCEEE77ACDED017A9DF8A8
:10160000044019202146FFF769FF601C04F038FAF6
:1016100002460B460020064904F0C6FB04F05CFDC0
:1016200000EE100A02B010BDF0EE477AE3E700BF0B
:1016300000408F400000F03F00007F4300000000AA
:1016400013B5044601211C200DF10702FFF72AFF04
:101650009DF8073003F0180010288DF8070019D006
:1016600009D868B1082810D00C484FF4AB7107F0C6
:1016700026FC012007E01828F6D14FF0685306E059
:101680004FF06252226002B010BD4FF06453002050
:101690002360F8E74FF06653F9E700BF359C000878
:1016A00013B5044601211B200DF10702FFF7FAFED6
:1016B0009DF8073003F0180010288DF8070016D0A9
:1016C00009D860B108280ED00A4840F27B1107F013
:1016D000F6FB012005E01828F6D1074B04E0074A85
:1016E000226002B010BD064B00202360F9E7054BD5
:1016F000FAE700BF359C000800007A3D0000FA3B85
:1017000000007A3C0000FA3C01212DE9F043002260
:1017100085B08046084607F0A5F99FED760AFFF7E9
:1017200049FF052007F0FFF8002007F086F968461A
:10173000FFF7B6FF322003F069FE40211A20FFF7C1
:10174000CDFE44216A20FFF7C9FE78212320FFF750
:10175000C5FE052003F05AFE0221722001AAFFF700
:10176000A1FEBDF804305BBA9BB2B3F5FC7FF0D3A9
:101770004FF000090C2778220021232007F099F868
:101780000221722001AAFFF78DFEBDF804404D46EC
:1017900064BAA4B2B4FBF7F74E464C461FFA89F37D
:1017A000BB42C0F08A8096FBF7F607EE906A9DED8B
:1017B000007AF8EEE77A95FBF7F567EE877AC8EDE1
:1017C000007A07EE905AF8EEE77A94FBF7F467EEAA
:1017D000877AC8ED017A07EE904AF8EEE77A67EE6D
:1017E000877A01AAC8ED027A02211320FFF75AFE78
:1017F0009DF904309DF8058001AA0221152048EAD0
:101800000328FFF74FFE9DF904309DF8057001AAEB
:101810000221172047EA0327FFF744FE002E9DF917
:1018200004209DF80530B8BF0336002DB8BF03353E
:10183000002CB8BF033443EA0223A7EBA505A3EBB2
:10184000A404A8EBA6062B12C6F307218DF80630D8
:10185000132023128DF808308DF804108DF80560E0
:101860008DF807508DF80940FFF738FE9DF80510F8
:101870001420FFF733FE9DF806101520FFF72EFE0B
:101880009DF807101620FFF729FE9DF80810172075
:10189000FFF724FE9DF809101820FFF71FFE4022D5
:1018A00000216A2007F005F800221146104607F0D3
:1018B000D9F8002005B0BDE8F08301AA0C217420FE
:1018C000FFF7F0FD9DF90A209DF80B3009F10109A1
:1018D00043EA02231E449DF90C209DF80D3043EA93
:1018E00002231D449DF90E209DF80F3043EA022388
:1018F0001C4453E700007A4437B5044600F060F812
:101900000128054629D104F124010846019100F07F
:1019100001F92046019907F0D5F904F14401084680
:10192000019100F005F9D4ED117AF1EE677AC4ED7A
:10193000117AD4ED127AF1EE677A20460199C4ED5E
:10194000127A07F0DBF99FED060A002229462046AD
:1019500003B0BDE83040FEF747BC03B030BD00BF68
:10196000000000007FB502260F4D10482E7007F0D2
:1019700087F906F0B4FF044680B90DF1030007F0C3
:10198000B1F8044650B9032301A82B70FFF7BCFE41
:10199000044618B92E70204604B070BD06F07DFFD5
:1019A00000232B70F7E700BFF2150020EC12002097
:1019B0000022024B1A7006F070BF00BFF215002023
:1019C000014B1878704700BFF21500200121022357
:1019D00030B51B4D85B0002208462B708DED010AF5
:1019E00007F040F89DED010AFFF7E4FD154C0820D3
:1019F00084ED000A06F0A7FF032006F094FF002004
:101A000007F006F8002007F018F8322003F0FEFC7B
:101A10000021012007F03EF803A807F049F894EDF3
:101A2000000A094807F04BF994ED000A0648FEF752
:101A3000BBFB054807F07EF901232B7005B030BDD4
:101A4000F215002060130020EC1200201A4AD36B1C
:101A50006BB392ED0C6A9FED197A07EE903A26EE81
:101A6000076AF8EE677AC6EE276A92ED0D6AFDEE18
:101A7000E66A26EE076A16EE903AC6EE276AFDEE93
:101A8000E66A038016EE903AD2ED0E6A66EE876A39
:101A900086EEA77ABDEEC77A438017EE103A8380B0
:101AA00000231363536393630023D363704703805E
:101AB00043808380704700BFEC12002000007A440E
:101AC0000F4BDFED106A93ED117A27EE267ABDEE0B
:101AD000C77AD3ED137A17EE102A93ED127A67EED8
:101AE000A67A27EE267AFDEEE77ABDEEC77A17EEE4
:101AF000903A028017EE102A83804280704700BF20
:101B0000EC1200200000C8420148FFF7F5BE00BFFC
:101B1000EC120020054A1278012A04D0002202604B
:101B200042608260704706F013BF00BFF2150020CC
:101B3000054A1278012A04D00022026042608260C5
:101B4000704706F035BF00BFF215002008B5094BFD
:101B50001B78012B01D0002008BD06F0B5FF064A16
:101B60001368013313600028F5D0044A1368013369
:101B70001360F1E7F2150020E4120020E8120020C3
:101B80009FED060A00F10C03B0EC017AF1EC017A4A
:101B9000984207EE270AF7D1704700BF0000000007
:101BA0000122024BC3F8A020704700BF00D00350B1
:101BB0000122024BC3F8A020704700BF00E0035091
:101BC00070B5404D88B001AC0FCD0FC495E807004B
:101BD00084E80700012401213A2001F099F83A4EE7
:101BE0000121292001F094F8384B304601A90393D4
:101BF0008DF8124002F038FD234604220321022012
:101C000002F046FB022122460846002302F040FB78
:101C1000234621460422022002F03AFB042200213E
:101C20002346022002F034FB294D2A4B4FF4487022
:101C3000C5F834374FF00213C5F8303703F5803359
:101C4000C5F838371C23C5F8203703F09BFD142056
:101C5000FFF7AEFF03F096FD2320FFF7A1FF03F08F
:101C600091FDB9213046FFF7A3FF07F015FAFFF702
:101C700097FF002303211A46022002F009FB0023EC
:101C800002211A46084602F003FB234621460022A1
:101C9000022002F0FDFA002223461146022002F043
:101CA000F7FA304602F0B4FC00212920C5F83417B9
:101CB000C5F83017C5F83817C5F8201701F028F80F
:101CC00008B070BDD49C000800C0055000127A0016
:101CD00000C003500200010008B500F02DF8124BBF
:101CE00012498B4212D30020114B12498B4218D358
:101CF000FFF78AF9186850F82240586840F82240E7
:101D0000013298688242F5D30C33EAE70022F8E703
:101D10001C6844F8220001325C68A242F8D3083300
:101D2000E4E70022F8E700BFA0A60008ACA6000880
:101D3000ACA60008ACA600084FF480414FF0FF307D
:101D4000114B124A10B59A60D3F8882042F4700201
:101D5000C3F888200E4A91660E4901F500521066BC
:101D60000D4850660220C3F8D000BFF34F8FBFF379
:101D70006F8F01244FF440330848C0F88041D3608E
:101D800004600B6110BD00BF00ED00E00000000822
:101D90000090005000800044F7FF370000E100E0B1
:101DA000014B1868704700BF04100020014B1860F9
:101DB000704700BF04100020084B1B6F03F007039F
:101DC000022B04D0032B05D0012B05D0FEE7044BDA
:101DD00018687047034BFBE70348704700800050CA
:101DE0000410002008100020002D310108B5FFF775
:101DF000E3FF054B1B6FC3F303330133B0FBF3F079
:101E0000024B186008BD00BF008000500010002089
:101E10000048704700B4C404014B1868704700BF05
:101E200008100020054B1860054B1B6F03F00703DB
:101E3000032B01D1FFF7DABF704700BF0810002065
:101E40000080005000487047002D31014FF0B4432E
:101E50009868C0F304400C2822D8DFE800F009217C
:101E600021212121071719211B1D1F000F48704731
:101E70009B6803F04073B3F1807F13D0B3F1007F10
:101E800012D00B4A002B08BF104670470948704714
:101E90000948704709487047094870470948704722
:101EA000002070470848704708487047405DC600EA
:101EB00000093D000024F400C0EA210180BA8C0131
:101EC0000048E801005A620280841E0040420F0070
:101ED000014B1868704700BF0C10002005490A68C4
:101EE0001318054883428CBF4FF0FF320B60104639
:101EF000704700BF101000200000042010B5012121
:101F00003A2000F005FF012304220321002002F003
:101F1000BFF9002007F0BFF80122314B3149C3F867
:101F200044244FF40022A3F550335A66D1F8FC2024
:101F30002C4C12F080721EBFD1F8FC3023F080735D
:101F4000C1F8FC302849D1F8803023F0030343F076
:101F50000203C1F880302AB1D4F8FC3043F080731A
:101F6000C4F8FC304FF4607000F0FEFED4F8F0309E
:101F70001E4A43F00103C4F8F030D4F8FC3000F5F9
:101F8000D52043F08073C4F8FC30194B00F2FC40BC
:101F90001A60184B0222B0FBF3F0174B013818619E
:101FA000C3F8F0204FF48072C3F804234FF060436D
:101FB000124A0020C3F8B02F114AC3F8802ED3F87C
:101FC000002E42F48072C3F8002EFF2283F82020F6
:101FD000D3F8002E22F48072C3F8002E10BD00BF8B
:101FE00000D0035000ED00E000800050FF030040EF
:101FF000001000E0F8590D00000004E055CEACC51B
:10200000090001004FF06043D3F8802E30B5D207AD
:1020100015D501240B4D8440D5F8FC2042F0807288
:10202000C5F8FC20D3F8002E2243C3F8002E53F845
:102030002020002AF0D003F82010002030BD11200D
:10204000FCE700BF00ED00E038B50D460446B0B136
:10205000012816D0022816D0032803D13F23EB40D5
:10206000DB0704D440F2FE31084806F028FF302098
:1020700001214443064B01FA05F51D5138BDFF23EC
:10208000EDE70F23EBE740F2FF33E8E7F09C0008B1
:1020900040E0035038B50D460446B0B1012816D0D3
:1020A000022816D0032803D13F23EB40DB0704D4DA
:1020B00040F22D41084806F002FF30200121444340
:1020C000064B01FA05F51D5138BDFF23EDE70F233F
:1020D000EBE740F2FF33E8E7F09C000840D0035004
:1020E00038B504784578ACB1012C15D0022C15D048
:1020F000032C03D13F23EB40DB0704D44FF4896169
:10210000084806F0DCFE302301225C43064BAA405F
:102110001A5138BDFF23EEE70F23ECE740F2FF33FF
:10212000E9E700BFF09C000840F0035070B5057867
:1021300004464678E5B1012D1CD0022D1CD0032D9C
:1021400003D13F22F240D30704D44FF483610C48FB
:1021500006F0B5FE1023302212FB0535094BEB5873
:10216000F34003F00100A3780BB980F0010070BDCB
:10217000FF22E7E70F22E5E740F2FF32E2E700BF88
:10218000F09C000830C003502DE9F04F9A46564BA2
:1021900085B01B7806460F461546DDF83C909DF845
:1021A00044B0DDF85080002B00F08D80072A00F24B
:1021B0008C800E9B002B00F08880B9F1000F00F09E
:1021C0008480129BB3F5006F7FDC012802D1109B45
:1021D000002B7AD0454B03EB05131B7B002B76D0ED
:1021E000434C10220021684607F0B7F804EB451471
:1021F0001022002F59D13946204607F0AEF843F29D
:1022000010036380BBF1000F03D1E37843F00303B5
:10221000E370374A0E9B02EB451CCCE90193129BFD
:102220006901013BC3F30A009DF84C30012E03F015
:1022300003034FEA836343EA001E53582D48CDF849
:1022400000A000EA03004EEA0003535041D11323DB
:102250000CF1100ECCF80C309CE80F008EE80F004B
:102260006FF00301DCF81C20109B61F39F02012F2B
:10227000CCF81C20CCF8143003D1CCF81890CCF852
:1022800004300027194A290102EB051342F80180A6
:10229000159A28465A60694622469F605E7302F08E
:1022A000D3F8384605B0BDE8F08F0021204607F08E
:1022B00054F84FF444736380BBF1000FA9D1E37865
:1022C00043F03003A4E70C48ECE70C48EAE70C487D
:1022D000E8E7B8F1000FD4D19CF8023068F304139A
:1022E0008CF80230CDE700BFF31500206413002006
:1022F000E41300200F80FFF3028000F0018000F063
:10230000078000F038B5124B05461B78DBB1E0B111
:1023100006F078FE0F4A00231146147B54B92B6057
:1023200001251A0101EB03131D738C5006F070FE9A
:10233000204638BD0133082B02F11002EDD106F022
:1023400067FE0548F5E70548F3E70548F1E700BFF4
:10235000F315002064130020048000F0028000F0D8
:10236000018000F013B506F04DFE00230B4A147BEC
:102370007CB90133082B02F11002F8D1019001F071
:10238000D9FF074B01981C7006F042FE204602B0B0
:1023900010BD06F03DFE0348F9E700BF64130020BE
:1023A000F3150020058000F00D4B10B51B78044696
:1023B00093B1072812D806F025FE0A4B03EB04134D
:1023C0001A7B2AB100241C7306F022FE204610BDA1
:1023D00006F01EFE0448FAE70448F8E70448F6E76A
:1023E000F315002064130020068000F0028000F046
:1023F000018000F0154B13B51868002301908DF88B
:10240000043006F0FFFD124B1C7824B106F000FEEC
:10241000104802B010BD01221A7006F0F9FD0E4BF3
:1024200001A81C731C7783F82C4083F83C4083F888
:102430004C4083F85C4083F86C4083F87C40082370
:102440008DF8073001F0B6FF2046E2E74B9D00080B
:10245000F3150020038000F0641300200A4A08B539
:1024600012785AB107280BD8084A02EB00131B7BDD
:1024700043B1002101F07CFF002008BD0448FCE7C7
:102480000448FAE70448F8E7F31500206413002035
:10249000028000F0018000F0078000F00A4A08B5D1
:1024A00012785AB107280BD8084A02EB00131B7B9D
:1024B00043B1012101F05CFF002008BD0448FCE7A6
:1024C0000448FAE70448F8E7F315002064130020F5
:1024D000028000F0018000F0078000F00A4A08B591
:1024E000127852B107280AD8084A02EB00131B7B66
:1024F0003BB102F02BF8002008BD0548FCE7054879
:10250000FAE70548F8E700BFF31500206413002040
:10251000028000F0018000F0078000F00D4B1B7876
:1025200093B1072812D889B10B4B03EB00131B7B27
:1025300073B10A4B1A6D012303FA00F010401ABF61
:1025400000200B70087070470548704705487047B9
:1025500005487047F3150020641300200000045064
:10256000028000F0018000F0078000F00B4A10B5F7
:1025700012780C4662B107280CD859B1084A02EB10
:1025800000131B7B43B101F0FDFF2070002010BD44
:102590000448FCE70448FAE70448F8E7F31500208C
:1025A00064130020028000F0018000F0078000F03A
:1025B000204B2DE9F0471F6D5A6D1F4C174010D569
:1025C0004FF000411D4A1165D868C0F30420030193
:1025D000E35804EB00125BB3BDE8F04700215268FA
:1025E000184701260025DFF85480DFF85490374261
:1025F00017D02368C8F850609BB1A1682846013104
:102600006268A1609847637B012B0AD148B909EB46
:1026100045131A7B60F341021A731A7F60F341027B
:102620001A770135082D4FEA460604F11004DED171
:10263000BDE8F0870000045064130020002004501F
:10264000E4130020044BD3F88420D206FBD4D3F843
:102650008400C0F3811070470040005008B5344B2F
:10266000984250D028D8334B984246D018D8324B95
:1026700098423FD00BD800283ED0304B984239D0FA
:102680002F4841F2593106F01AFC002034E02D4B5E
:1026900098422FD02C4B9842F2D12C4B586E2BE005
:1026A0002B4B98422CD003F5371303F5D86398428F
:1026B000E6D1264B986F1FE0264B98422FD00CD8BE
:1026C000254B984223D0254B984224D0244B984246
:1026D000D6D11E4BD3F884000EE0224B984222D074
:1026E00003F5740303F510539842C9D1174BD3F87F
:1026F000980001E0154B986D08BD144B186FFBE76F
:10270000124B586FF8E7114BD3F88000F4E70F4BEA
:10271000D3F88800F0E70D4BD3F88C00ECE70B4BB7
:10272000D3F89000E8E7094BD3F89400E4E700BF42
:1027300080BA8C01405DC60080841E0040420F00BC
:102740004F9D000800093D00C0CF6A000080E00FE7
:102750000024F400007E560380D54302006CDC02A6
:102760000048E8010090D00338B5124B0546D3F875
:1027700080300C4603F00303022B0BD0032B0DD04B
:10278000012B0FD1FFF718FB0E2305B1286004B110
:10279000236038BDFFF75AFB0723F6E7FFF700FB7E
:1027A0000623F2E7044841F2B21106F088FB002349
:1027B0001846EAE7008000504F9D000838B51A4BD4
:1027C0000546D3F820010C4600F00700062821D862
:1027D000DFE800F028040C1410181C00FFF7E0FAE2
:1027E000052305B1286004B1236038BDFFF714FB51
:1027F0000323F6E7FFF72AFB0723F2E7FFF722FBA5
:102800000223EEE7FFF7CCFA0623EAE7FFF704FB23
:102810000423E6E7054841F22F2106F050FB002390
:102820001846DEE70123DCE7008000504F9D0008DA
:1028300038B5194B0546D3F828310C4603F0070389
:10284000013B052B20D8DFE803F003131B0F0B1708
:10285000FFF7A6FA052305B1286004B1236038BD4F
:10286000FFF79EFA0623F6E7FFF7F0FA0723F2E7F1
:10287000FFF7D2FA0323EEE7FFF7CEFA0423EAE7E5
:10288000FFF7E0FA0223E6E7044841F2370106F0D9
:1028900016FB00231846DEE7008000504F9D00081D
:1028A000F7B50027144B0197D3F88041064604F092
:1028B0000304022C0D4614D0032C0DD0012C14D18E
:1028C000394601A8FFF77AFF10240EB1019B33604F
:1028D00005B12C6003B0F0BDFFF7B8FA07240190F2
:1028E000F3E7FFF7AFFA0190EFE741F284310348D5
:1028F00006F0E5FA3C46E8E7008000504F9D0008EE
:10290000002337B50193194B0546D3F820320C4606
:1029100003F00703042B1FD8DFE803F025030F148F
:102920001900002101A8FFF783FF12230DB1019ABE
:102930002A6004B1236003B030BDFFF787FA072394
:102940000190F3E706F0B5FA0A230190EEE7FFF7EE
:10295000BFFA09230190E9E740F6F671044806F052
:10296000AEFA0023E2E70123E0E700BF0080005059
:102970004F9D000838B5104B0546D3F840310C4642
:1029800003F00303022B0BD0032B0DD0012B0FD12F
:1029900006F08FFA0A2305B1286004B1236038BD20
:1029A000FFF796FA0923F6E706F086FA0C23F2E71A
:1029B00001230020EFE700BF00800050002337B55F
:1029C0000193184B0546D3F860320C4603F0070319
:1029D000013B032B1FD8DFE803F0020E191400217E
:1029E00001A8FFF7EBFE10230DB1019A2A6004B194
:1029F000236003B030BD002101A8FFF7BBFF112306
:102A0000F2E7FFF723FA07230190EDE7FFF71AFA41
:102A100002230190E8E741F29B01034806F04FFAD8
:102A20000023E1E7008000504F9D0008002337B5E8
:102A30000193184B0546D3F894320C4603F0070374
:102A4000013B032B1FD8DFE803F0020E191400210D
:102A500001A8FFF7B3FE10230DB1019A2A6004B15B
:102A6000236003B030BD002101A8FFF783FF1123CD
:102A7000F2E7FFF7EBF907230190EDE7FFF7E2F943
:102A800002230190E8E741F2CE01034806F017FA6D
:102A90000023E1E7008000504F9D000873B500243B
:102AA0000F4B0194D3F87032064603F00303012B59
:102AB0000D4607D0022B11D041F2F901094806F06A
:102AC000FEF904E0214601A8FFF754FF11240EB1DE
:102AD000019B336005B12C6002B070BD1524F6E790
:102AE000008000504F9D000838B5164B0546D3F8BE
:102AF00000020C4600F00700042819D8DFE800F0B7
:102B000020030B0F130006F0D4F90A2305B1286047
:102B100004B1236038BDFFF7DBF90923F6E706F0BF
:102B2000CBF90C23F2E7FFF761F90F23800AEDE7F9
:102B3000054841F2424106F0C2F900231846E5E794
:102B40000123E3E7008000504F9D000838B5164B85
:102B50000546D3F808020C4600F00700042819D8EF
:102B6000DFE800F020030B0F130006F0A2F90A23A0
:102B700005B1286004B1236038BDFFF7A9F9092326
:102B8000F6E706F099F90C23F2E7FFF72FF90F2388
:102B9000800AEDE7054841F27A4106F090F90023FA
:102BA0001846E5E70123E3E7008000504F9D000849
:102BB00038B5104B0546D3F840320C4603F00303FA
:102BC000022B0BD0032B0DD0012B0FD106F071F986
:102BD0000A2305B1286004B1236038BDFFF778F9F6
:102BE0000923F6E706F068F90C23F2E70123002039
:102BF000EFE700BF0080005038B5104B0546D3F812
:102C000060310C4603F00303022B0BD0032B0DD0D5
:102C1000012B0FD106F04DF90A2305B1286004B14C
:102C2000236038BDFFF754F90923F6E706F044F9AD
:102C30000C23F2E701230020EFE700BF00800050E3
:102C4000B0F5207F10B52ED009D8B0F5007F24D084
:102C500003D868B1B0F5C07F0AD000241BE0B0F5FE
:102C6000607FFAD1124BD3F88040C4F3011412E014
:102C70000F4B1C6F230B13F00E0FC4F303340AD059
:102C8000032C08D0072C06D00F2C04D04FF41E7153
:102C9000084806F014F9601C10BD054BD3F89040AD
:102CA000C4F30464F7E7024B1C6FC4F38024F2E71B
:102CB000008000504F9D00084FF4803238B5104B13
:102CC00004469A6600200D46FFF7BAFF41F67132BE
:102CD0000C4B6043DC69DA635A6804F4803422F4F4
:102CE00040125DB9084988428CBF4FF48010002023
:102CF000104358600CB10022DA6338BD0349F2E793
:102D00000090005000000350005A6202002D310173
:102D100070B5440905460E460ED140F21F310F48EA
:102D200006F0CDF805F01F05AEB104F58053012083
:102D300000FA05F51D6070BD012C08D0022C08D0EA
:102D400040F22931054806F0BAF80024EAE7044CBD
:102D5000E8E7044CE6E704F50053E8E74F9D000878
:102D60006480005068800050002130B5802885B014
:102D70000446CDE9001100F09F8035D85E2846D882
:102D80005E2844D8DFE800F09E4343434343434377
:102D90004343434343434343434343434343434303
:102DA00043434343434343439EAA9EAAB9B9B9B997
:102DB000B9AAC350D97450AAAAAA43434343434370
:102DC0004343AAAAAA7CE3AA43434343434343435E
:102DD0004343434343B99E9E9EDE5050E88B61BE01
:102DE0004343434343939E00B0F5B06F00F08F80A0
:102DF00030D8B0F5207F71D00FD8B0F5C07F61D04A
:102E0000B0F5007F61D0B0F5807F00F0858040F2A2
:102E10007C41544806F053F851E0B0F5607F67D02C
:102E20000DD8B0F5407FF2D1FEF7E0FF04464FF435
:102E30002070FFF705FFB4FBF0F040083EE0B0F56E
:102E4000806F5AD0B0F5A06FE1D100216846FFF73E
:102E500057FD34E0B0F5106F74D016D8B0F5E06FC0
:102E600075D00AD8B0F5C06F67D0B0F5D06FCED1AD
:102E700000216846FFF738FE21E0B0F5F06FC6D1BB
:102E800000216846FFF7B8FE19E0B0F5406F39D071
:102E90000AD8B0F5206F5FD0B0F5286FB7D1002108
:102EA0006846FFF7FBFD0AE0B0F5486FAFD100219F
:102EB0006846FFF7BBFD02E0FEF77EFF009000983A
:102EC00005B030BDFEF792FFF8E7FEF775FF054647
:102ED0002046FFF7B5FEB5FBF0F0EFE7FEF786FF03
:102EE00004464FF42070FFF7ABFEB4FBF0F0E5E7CB
:102EF00001A8FFF739FC019DEAE700216846FFF7CA
:102F00005DFCDCE700216846FFF792FCD7E7002173
:102F10006846FFF7C5FCD2E74FF0E02302911B693A
:102F20005B0705D5FEF762FF0290029B0093C6E7A0
:102F300003A902A8FFF71EFDF7E700216846FFF787
:102F400019FDBCE700216846FFF700FEB7E7002146
:102F50006846FFF72DFEB2E700216846FFF72EFD19
:102F6000ADE700BF4F9D000808B58020FFF7FCFECD
:102F7000034B98429EBF4FF48032024B1A6708BD44
:102F8000005A620200A000501FB50023B0F5807FF8
:102F9000019300F0C38064D85D2855D84C2806D82A
:102FA0002D2847D823282BD840F25D51A5E04D3875
:102FB0001028F9D801A353F820F000BF13310008FE
:102FC000A92F0008A92F0008A92F0008C530000864
:102FD000A92F0008A92F000899310008E330000844
:102FE000893000088F310008A92F0008A92F000898
:102FF000A92F0008A92F0008A92F0008A331000855
:1030000024380928D0D801A353F820F01331000840
:103010001331000813310008133100081331000880
:10302000A92F000803310008A92F0008A5300008C7
:10303000493100083D2800F082803E28B4D10020AC
:1030400001A9FFF7B5FD60E08028ADD1574B1B6F9C
:1030500003F00703013B032B4DD8DFE803F04A4799
:10306000878FB0F5F06F6AD021D8B0F5B06F48D037
:103070000FD8B0F5607F00F0858095D3B0F5806FF4
:1030800047D0B0F5A06F8FD1002001A9FFF738FC21
:103090003BE0B0F5D06F57D0B0F5E06FCFD0B0F5D2
:1030A000C06F81D1002001A9FFF764FC2DE0B0F5CD
:1030B000206F71D00BD8B0F5086F4AD0B0F5106F03
:1030C0007FF472AF002001A9FFF740FD1DE0B0F5CD
:1030D000406F5CD0B0F5486F63D0B0F5286F7FF4D7
:1030E00063AF002001A9FFF7D9FC0EE0052301938F
:1030F0000BE00223FBE740F2AE412D4805F0DFFE76
:1031000003E0002001A9FFF7CBFB019805B05DF8B3
:1031100004FB002001A9FFF751FBF6E702934FF0F3
:10312000E0231B695B0705D5FEF760FE0D230393C3
:10313000039BDCE703A902A8FFF71CFCF8E70020CB
:1031400001A9FFF759FDE0E7002001A9FFF7CCFC3A
:10315000DBE7164BD3F8003103F00303022B07D053
:10316000032B09D0012B0BD1FEF756FE0323BEE73C
:10317000FEF7AEFE0923BAE705F099FE0823B6E78D
:103180000123B4E7184601A9FFF7EEFABDE70020D6
:1031900001A9FFF74DFBB8E7002001A9FFF70EFCDE
:1031A000B3E7002001A9FFF741FCAEE70080005023
:1031B0004F9D000838B5036804460F2B04D940F62C
:1031C00049317E4805F07BFE63680F2B04D940F639
:1031D0004C317A4805F073FEA3680F2B04D940F6F2
:1031E0004F31764805F06BFE237B0F2B04D940F658
:1031F0005231724805F063FE637B0F2B04D940F611
:1032000055316E4805F05BFEA37B3F2B04D940F699
:1032100058316A4805F053FEE37B3F2B04D940F652
:103220005B31664805F04BFE2369032B04D940F659
:103230005E31624805F043FE6369032B04D940F612
:1032400061315E4805F03BFEE369032B04D940F68B
:1032500064315A4805F033FE8020FFF795FE0328BD
:1032600000F08A804FF48012554B4FF0A0615A66EF
:1032700045F60E03534AC2F88030534B99624FF41F
:10328000803103F580539962936DD903FCD4916D1D
:1032900011F08041FBD1D4E900031B0543EA006330
:1032A000E07B0343207B43EA0043607B43EA003337
:1032B000A07B43EA801313619069D4E904531B0691
:1032C00043EA856300F000400343A07EE57E0343AC
:1032D000207E43EA0043607E43EA00239361E06975
:1032E000136A00280CBF0022082223F00F0343EAD0
:1032F000000343EA850343EA0203324A334D136273
:103300003BD194F82430916A94F82000DB000D4002
:1033100043EA401394F821102B4343EA011343F48A
:10332000803393622A4B916D33EA0101FBD14FF058
:103330008071254881621369A56823F4700343EA0C
:10334000055313614FF00043836194F822300BB9A9
:10335000204B996294F823303BB94FF480321D4BD7
:103360009A62184A936D5B00FCD494F825301BB127
:10337000144B194AC3F8802038BD022808D11161C6
:10338000164891614FF408524FF47F4105F0FAFD61
:103390000C4994F822308A6A94F820001B061540E4
:1033A00043EA401394F824202B4343EAC20394F8E1
:1033B000232043EA02438B62D7E700BF4F9D0008FA
:1033C000009000500040005A0050005AC7FFFEFE17
:1033D000030001000060005AF1A7FFFF3440005ACB
:1033E000014B93F900007047EF110020436810B5BE
:1033F000072B044604D940F686512A4805F05FFDA4
:10340000A368032B04D940F68851264805F057FDE0
:103410002378032B04D940F68A51224805F04FFD4A
:1034200094F90130002B04DA40F68C511D4805F068
:1034300046FD4FF400011C4A637851664FF4D151A8
:10344000022002F5B832516218494F2B48604FF004
:10345000010028BF4F2301F5805148601169C9035D
:10346000FCD4217843EA01235361D4E901131B0101
:1034700043EA0123617B0B43217B43EA41039360D1
:10348000E37BA17B1B0143EA4113617C0B43217C5D
:1034900043EA41035360A37C13B16FF4D1535362E9
:1034A00010BD00BF4F9D000800900050001002505A
:1034B000014B1880704700BFE6110020014B1880B7
:1034C000704700BFE4110020B0F5207F38B577D0F9
:1034D0000ED8B0F5007F61D003D890B3B0F5C07FAF
:1034E0002FD040F20231BDE838403D4805F0E7BC3E
:1034F000B0F5607FF5D13B4A4C1ED2F8FC5015F078
:1035000080751EBFD2F8FC3023F08073C2F8FC3007
:10351000032C04D940F2E321314805F0D0FC324BB2
:10352000D3F8801021F0300141EA0411C3F8801073
:1035300035B12C4AD2F8FC3043F08073C2F8FC302D
:1035400038BD102901F1FF3404D8284B23FA01F1CA
:10355000CB0704D440F2B921214805F0B0FC05F0B6
:1035600022FD05F02EFD4FF48031214B1E4A1967D4
:10357000136F23F4704343EA04331367FEF736FCFA
:103580000446FFF75FF8C0F10201204605F013FD85
:1035900000F040F8BDE83840FFF7E6BC4C1E1F2C99
:1035A00004D940F2F6210E4805F089FC0E4BD3F801
:1035B000901021F0F85141EA0461C3F89010BFE780
:1035C0004C1E012C04D94FF43F71054805F077FCDF
:1035D000054B196F21F4806141EA84211967AFE737
:1035E0004F9D000800ED00E0008000501601010032
:1035F0000090005008B50121022000F0BBF805F052
:10360000D2FC05F0DEFC4FF48032014B1A6708BD96
:103610000090005008B54FF4C070FFF7A5FBBDE85F
:103620000840044988428CBF022101214FF42070D8
:10363000FFF74ABF80F0FA022DE9F0410546FFF797
:103640000DF8431E0333044604D940F6A1113A484D
:1036500005F035FC4FF4C022384B5A6603F5983319
:103660005A68012A04D136494A605A689207FCD444
:103670008020FFF789FC052807D105F094FC05F0B0
:10368000A0FC4FF480322D4B1A672E4B24F040746F
:103690009D4244D02C4B9D4244D0FEF781FB854295
:1036A000064603D90121284600F0BCF8274FFB68E5
:1036B00013F0060FFBD1D7F80880BC60BB6804F498
:1036C000F81403F4F8139C422FD0354640F6E91164
:1036D000194805F0F4FBC7F808808020FFF754FC78
:1036E000052814D1FEF782FB8542044604D240F639
:1036F000FA11114805F0E3FBFEF7A4FFC0F1020147
:10370000204605F058FCFFF785FFFFF72DFCB5427A
:103710000FD8BDE8F0410121002000F083B844F04B
:103720000074BAE744F08074B7E72846FEF73EFB22
:10373000D3E7BDE8F08100BF4F9D00080090005026
:1037400000E0015040420F0080841E000000015044
:10375000024A536B0342FCD1704700BF004009503E
:10376000034A0179D36E23F030030B43D3667047CD
:10377000004000502DE9F0410446264BD3F8842048
:10378000D006FBD4D3F88430C3F381139C423ED0DF
:10379000FEF712FB012C05460BD11F4B984204D9B2
:1037A00040F261711D4805F08AFB0121284605F0B1
:1037B00002FC05F020FC4FF00072194B07465A66D8
:1037C000204605F028FC4FF48063124E621E9340A1
:1037D000DFF848803367736E9A0103D4D6F88430DB
:1037E0009B060AD5384605F00AFC022C0FD1284664
:1037F000BDE8F041002105F0DEBBD6F88430990623
:10380000E9D540F26F71404605F059FBE3E7BDE8AA
:10381000F08100BF00400050005A6202A99D0008DC
:103820000060005007B518B90191FEF7C5FA01997B
:10383000064B1B7843B1064B984205D8012003B0D4
:103840005DF804EBFFF796BF0220F8E7F4150020BF
:10385000005A62024FF0004238B5244B244C5A669D
:103860004AF6CD33656C014605F00105236430BB93
:103870000120FFF76DFF6368DB0708D4002415B152
:103880001B4B1C4A1A6405F0C7FB204638BD1A4B77
:1038900058600846194B226BD20705D4984201D1D3
:1038A0000724ECE70130F6E79842E7D1F8E7013268
:1038B000236B13F0080305D08A42F8D1F0E7002209
:1038C0000E49F5E78A42EBD020210B4A9162012193
:1038D000A2F5805251600649084A886A800603D4DE
:1038E0009342DDD00133F8E79342DEE700900050C9
:1038F000004009503254FFFF0060095040420F0061
:103900004FF0004238B5164B01465A664AF6CD33A1
:10391000144C154A656C236443780B205B0043F01C
:103920000103D363FFF714FF63688A7823F4F87305
:1039300043EA02136360CA784B7943EA0223A36027
:103940000A798B7943EA022323610878FFF782FF23
:10395000EB0744BF054B236405F05EFB012038BD37
:103960000090005000400950004000503254FFFFCA
:103970000F2870B5044604D940F6FC51134805F0F1
:103980009EFA4FF00042124B12495D6E03F58053D0
:103990005A664AF6CD334E6C80200B64FFF7D8FE92
:1039A0000B6A23F00F030F2C94BF234343F00F0344
:1039B0000B62F30744BF084B0B64002DA2BF4FF00E
:1039C0000042064B5A6605F027FB70BDA99D000812
:1039D00000800050004009503254FFFF00A000500A
:1039E00010B505F01EFB042300F5805100F50052D0
:1039F0000B6113610B6113610B6113610B61136147
:103A0000202341F2020103610023C360836041610E
:103A10004FF4A0218361836541620549C36103625C
:103A20008362C36243630365D164036310BD00BF57
:103A3000FF3F0D0338B5174B044698420D4607D09B
:103A4000154B984204D040F26511144805F037FA3E
:103A500025B92046BDE8384005F0E3BA012204F557
:103A600080535A6040F6FF71204605F00F0205F0C2
:103A7000D4FAA263782105F0D0FA05F001036A07B1
:103A800048BF43F00203A26C02F003029A42FAD14B
:103A900038BD00BF0000015B00000A50039E000813
:103AA0002DE9F04105460C46174622B940F2232184
:103AB0006D4805F004FA6D4B9D4200F0C9806C4BD7
:103AC0009D4200F0CA8040F22621674805F0F7F9D0
:103AD00044B940F27531644805F0F1F92046FFF72A
:103AE00043F90446AB68D80744D5BC4204D24FF42E
:103AF0000C715D4805F0E3F96B6803F00108B4FB55
:103B0000F7F35C1EFF2C04D94FF40E71564805F0F4
:103B1000D6F9B8F1000F2BD02821284605F07DFA00
:103B2000AB6C99071ED1AB6CDA071DD4AE6C16F0E6
:103B300002061BD140F245214B4805F0C0F928464A
:103B400005F06FFA2B6923F07F4343EA04632B618E
:103B5000B8F1000F00F0868031462846BDE8F041FC
:103B6000FFF768BF0526EAE70926E8E70626E6E745
:103B70004646E7E76B68012B04D04FF416713A48CC
:103B800005F09DF9AB6DA968DB0701F0E00148BFC6
:103B90007F00402946D009D8B9B1202938D040F259
:103BA0009A21BDE8F041304805F089B9602945D037
:103BB0008029F4D107EB4703A34204D94FF42571C0
:103BC000294805F07CF9012308E0B7EB141F04D95C
:103BD0004FF42071244805F072F910237B436401EF
:103BE000B4FBF3F3234E203BB6EBC30F4FEAC30401
:103BF00004D240F2A5211C4805F061F92846344062
:103C0000012105F00AFA2C63BDE8F04105F005BA80
:103C1000B7EBD40F04D940F28521134805F04FF9D2
:103C20000823DBE70626B4FBF6F3BB4204D240F2DE
:103C30008A210D4805F043F93346CFE7B7EB940FDF
:103C400004D940F28F21084805F039F90423C5E76B
:103C5000002C7FF447AF562440E7002C7FF442AF9E
:103C600057243BE7BDE8F081039E00080000015B9C
:103C700000000A50F8FF7F00F8B51E46436804466E
:103C80000D4617461BB140F6FF7105F0C6F92046F8
:103C9000FFF7A6FEE9896B7B62690B43298A22F450
:103CA0004C520B4322F00F0213436361A2682B7E38
:103CB000297B22F0804222F0E202194311436A6913
:103CC0001143AA68A1601AB9A26842F00042A2603A
:103CD000E869002860D0A268017A42EA8152A260B5
:103CE000A268817A42EA4142A2608288A16802F415
:103CF000C0420A43A260A268417842EA8102A260FF
:103D0000A268417B42EAC102A260A268817B42EACA
:103D10000112A260A268817842EA8122A260C2797F
:103D20008179520242EA8122E260027802F0FD01CA
:103D3000012908BFE168A2F1020204BF41F00401B9
:103D4000E160012A6149624A7DD88C4279D061499B
:103D50008C420CBF01214FF0FF3102EB411241F2C6
:103D600094414FF0020C42F801C0427A04F58051B0
:103D70008A621AB1E26842F40062E260C27A5AB121
:103D8000E26842F40042E260504A94426AD1027B07
:103D9000514902F00F024A6747B197F8202004F515
:103DA000805C002A68D00122CCF82020002E34D07C
:103DB00004F5805113B14FF400438B65434A96F8E4
:103DC00021309442708C02D0424EB4421BD1102B51
:103DD000424E61D894425DD03E4A94420CBF0122CB
:103DE0004FF0FF320127B0F5006FB754374A3C4E11
:103DF00060D894425CD0374A94420CBF01224FF005
:103E0000FF320127B754A26D034322F4F95222F086
:103E10001E021343A36501238B6505212046FFF78E
:103E200009FEAA681AB120466968FFF739FE2046E4
:103E30002978FFF7FFFDA36CDB4313F4405FFAD151
:103E4000F8BD002189E78C420AD022498C420CBF80
:103E500001214FF0FF3102EB411242F2944180E721
:103E60000021F8E71B4A944201BF027B1A4902F085
:103E70000F02C1F880208FE797F82210E06997F8C9
:103E800021200A4320F009010A4342F00102CCF844
:103E90001C208BE70022A5E7944207D00D4A9442EC
:103EA0000CBF01224FF0FF3202279CE70022FBE704
:103EB0000022A6E7944207D0064A94420CBF012292
:103EC0004FF0FF3202279DE70022FBE70000015B75
:103ED00000C0035000000A5000900350F715002066
:103EE000F5150020134B70B5984205460C4606D0D8
:103EF000114B984203D07021104804F0E0FF1CB928
:103F000072210E4804F0DBFF237B802B03D1762146
:103F10000A4804F0D4FF637B032B03D979210748B7
:103F200004F0CDFF002321462846BDE870401A4624
:103F3000FFF7A2BE0000015B00000A50039E0008CC
:103F40002C4B70B5984205460C4647D08A212A482A
:103F500004F0B5FF34B98C21274804F0B0FF254B9D
:103F60009D423DD09E21244804F0A9FF637B032B92
:103F700003D9AA21204804F0A2FF237B802B03D081
:103F8000AC211D4804F09BFF6369B3F1804F03D05F
:103F9000AE21194804F093FF238A23F400539BB207
:103FA000B3F5805F03D0B021134804F088FFA36805
:103FB000013BB3F5165F03D3B2210F4804F07FFF36
:103FC000002321462846BDE870401A46FFF754BE3C
:103FD00040F20B13D340DB07C4D5C7E70029BAD0A2
:103FE0005620FEF7D1FFA0F10902082AF0D91228C5
:103FF000BCD0B7E70000015B039E0008774B70B5AB
:10400000984204460D4606D0754B984203D0DF21F6
:10401000744804F054FF1DB9E121724804F04FFFC9
:104020006A7BAB687AB1704A934203D9E3216D4849
:1040300004F045FF2B69D3B1DB7BC3B1E6216948AE
:1040400004F03DFF13E0694A934203D9E921654832
:1040500004F035FF2B6953B11A7F42B1A968644A55
:104060005B7F914240F2A080042B00F2A080636845
:104070002E6923B140F6FF71204604F0CEFF2046A2
:10408000FFF7AEFC22696B7BA97B22F087020B4312
:10409000134343F08003236116B32A69236911781F
:1040A00023F0F8030B43117F43EAC113117943EA6C
:1040B0004113517A43EA0113D17B43EA811323610F
:1040C000E168D2E9053021F0F04121F47021034389
:1040D0000B43117B527B43EA812343EAC233E36003
:1040E000A368EA7B23F00303134343F00103A360B7
:1040F0002EB32A69A168538803F4C0430B43A3601D
:104100005179A36843EA8123A3609379D079616AE6
:104110001B01000203F0700300F4E06021F477213A
:1041200021F4EE6103430B43117A527F090301F43A
:10413000E04112040B4302F470221343636263698B
:104140002A7B23F00F0313436361B6B12B695A89AD
:10415000A2615A7B3AB1214A94422AD19A7B2549DD
:1041600002F00F024A67DA7B3AB11C4A94422AD124
:104170001B7C204A03F00F031367D5E90112204688
:10418000FFF78EFC05212046FFF754FC282120462E
:1041900004F043FF2B78A36304F03FFFA36CDB43E1
:1041A00013F4405FFAD170BD042B3FF660AFF021ED
:1041B00045E70B4A944201BF9A7B0E4902F00F0279
:1041C000C1F88020CFE7064A944201BF1B7CA2F5CC
:1041D000CE2203F00F03D367CFE700BF0000015BDF
:1041E00000000A50039E0008002D310180969800BF
:1041F0003F4B4C000090035038B50D460446B0B11B
:10420000012816D0022816D0032803D13F23EB4003
:10421000DB0704D440F22D41084804F050FE302062
:1042200001214443064B01FA05F51D5138BDFF231A
:10423000EDE70F23EBE740F2FF33E8E7F09C0008DF
:1042400040D0035038B50D460446B0B1012816D011
:10425000022816D0032803D13F23EB40DB0704D408
:1042600040F2FE31084804F02AFE30200121444388
:10427000064B01FA05F51D5138BDFF23EDE70F236D
:10428000EBE740F2FF33E8E7F09C000840E0035022
:104290002DE9F0410D46174698460446002835D0D2
:1042A000012835D0022835D0032803D13F23EB4025
:1042B000DB0704D44FF4B0711C4804F000FE37B1A2
:1042C00029462046B8F1000F27D0FFF795FF0F21B0
:1042D000072D04EB440688BFA5F108034FEA061634
:1042E000134895BFAB009B0004360C3607FA03F267
:1042F0009940304404F0BEFEB7B929462046B8F1D3
:10430000000F0DD0BDE8F041FFF776BFFF23CEE7E9
:104310000F23CCE740F2FF33C9E7FFF793FFD6E75F
:10432000BDE8F041FFF78EBFBDE8F081609E000858
:1043300030C003504FF400120B4B10B5C3F880206F
:10434000BFF34F8FBFF36F8F0024FF22074B21462F
:104350005C6520209A625C60FEF7DAFC2146BDE8CD
:1043600010402120FEF7D4BC00E100E00000045022
:10437000072838B504460D4603DD7721094804F0C7
:104380009EFD1F2C03D99121074804F098FD074B8F
:10439000074A0120002D18BF134600FA04F41C60E0
:1043A00038BD00BFBB9E0008169F00084010045097
:1043B0004020045010B5044618B991211F4804F05C
:1043C0007EFD23781B0613F0604F03D092211B481B
:1043D00004F075FDE3780F2B03D9A321174804F0EF
:1043E0006EFD01212020FEF793FC01212120FEF724
:1043F0008FFC0122124B5A60227812069A60617873
:10440000A27842EA01429A61FF229A6200229A63EC
:104410001A644FF000425A654FF0FF324FF400111A
:1044200003F500531A65074AC2F88011E3781B01AF
:10443000DBB282F81533116010BD00BFBB9E0008CF
:104440000000045000E100E02DE9F0410126C3B274
:10445000072805460C46904606FA03F603DDEC21D4
:10446000364804F02CFD1CB9ED21344804F027FD3A
:10447000236823F47C1323F00F031BB1F0212F4892
:1044800004F01DFDA37A1B0413F47C0F04D040F24A
:1044900009112A4804F013FDE37A1B0513F07E6F1F
:1044A00004D040F20B11254804F009FD237B5B0585
:1044B00013F0FE5F04D040F20D11204804F0FFFC21
:1044C00030201F4F1F4B617B1E65AB0000FB057545
:1044D000226803F1A04303F588235A602966E37A32
:1044E000A27A1B0543EA0243227B43EA425328F0A7
:1044F0000302EB652A6704F085FD7B6D33437B6522
:10450000237A13B13B6C33433B64637A13B1BB6BC7
:104510003343BB632279A37943EA0243094A936197
:104520006179E37943EA014307498B61044B5663A0
:104530009E64BDE8F04104F06BBD00BFBB9E000867
:1045400000000450002004500010045010B5012455
:10455000C3B2072804FA03F404DD40F297110748B8
:1045600004F0ADFC04F04EFD054B5A6D22EA040246
:104570005A659C62BDE8104004F04ABDBB9E00082D
:104580000000045010B50124C3B2072804FA03F454
:1045900004DD40F2B5110A4804F091FC04F032FD4C
:1045A000084BDA6A224209D15B6B34EA03030CBF81
:1045B0000124002404F02CFD204610BD0024F9E75E
:1045C000BB9E00080000045070B506460C46154618
:1045D00022B940F28E210C4804F071FC24B94FF44A
:1045E0002070FEF7C1FB04466D00013CB4FBF5F4FE
:1045F000064B250213EA042304D040F2B3210248FB
:1046000004F05DFCF56170BD709F0008070080FF3D
:10461000124B10B59842044604D040F24241104873
:1046200004F04DFC012104F58053596040F6AA6363
:1046300041F20502636100230A48A360E365E2607A
:1046400004F500522361E361E36490640348A365C9
:10465000844204BF23656365516010BD00C00550EE
:10466000709F0008FFFF010038B52D4B04469842AB
:104670000D4604D040F269312A4804F020FC20465F
:10468000FFF7C6FF0122A97B04F580535A602A8AEE
:10469000A368002914BF4FF48061002142F0010299
:1046A00013432A7D0B43002A14BF4FF0005200220F
:1046B000A360A3681343A360AB7C5BB1184B9C421F
:1046C00002BFEA7CA3F51033C3F8C821E36D43F0C1
:1046D0008003E3652B7B2046D5E9011243F4805328
:1046E000E360FFF771FF6B7B0BB1102363616B7DA0
:1046F0001BB1A36843F48033A360AB7D1BB1A368F7
:1047000043F40043A360EB7D2A7E1B07120503F0F0
:10471000E04302F4E0021343A3652B78636138BDE4
:1047200000C00550709F0008054B9A689107FCD4A3
:104730005A689207F9D4DA69002AF6D1704700BFA7
:1047400000800A5008B5FFF7EFFF0122024B03F586
:1047500080514A601A6108BD00800A50074B5A68B0
:10476000012A0AD15A68D20702D5DA69002AF9D19A
:1047700002221A610122024B5A60704700800A50DF
:1047800000A00A5010B5064CFFF7CEFF6368012B5E
:1047900003D1FFF7E3FFFFF7C7FF0378E36010BD26
:1047A00000800A5018B17121104804F088BB4A6893
:1047B0000B7812B1127843EAC2034A78002A14BF78
:1047C0000222002213438A6812B1127843EA82134C
:1047D0008A78002A14BF042200221343CA6812B147
:1047E000127843EA4223024A93647047CC9F000840
:1047F00000800A5020B14FF48271034804F05FBB7F
:10480000024B5964704700BFCC9F000800900A50CB
:1048100020B14FF4A071034804F051BB024B59641E
:10482000704700BFCC9F000800A00A5020B14FF491
:10483000BE71034804F043BB024B1964704700BFCC
:10484000CC9F000800A00A5008B530B1044840F2DF
:10485000B71104F034FB002008BD024B186CFBE7D5
:10486000CC9F000800800A5008B548B1084840F2C3
:10487000662104F024FB002008BD064BD86CFBE742
:104880000029FAD00129F7D1024B186DF4E700BFD7
:10489000CC9F000800800A5050B14FF44171074886
:1048A00004F00DBB064BDA647047054B1A65704780
:1048B0000029F7D00129F8D0704700BFCC9F00082D
:1048C00000800A5007B5094B18689A889B790090B8
:1048D0006846ADF804208DF80630FFF711F80C207B
:1048E000FFF746F8002003B05DF804FB36A000088F
:1048F00013B50024064A6846536F43F0010353671B
:1049000000948DF80440FEF72BFF204602B010BD46
:104910000040005008B50248FEF78EFE002008BD9A
:1049200000B4C40430B58BB06C46174D0FCD0FC426
:104930000FCD0FC495E8030084E80300134BD3F8B0
:104940004C21120317D4D3F85041E4B28DF819402A
:10495000FEF746FD204480F308008DF818000C484F
:10496000FDF760FA6846FEF725FC3220FEF7A6FD4B
:1049700000200BB030BD074B1C884FF6FF739C42E4
:1049800008BF8C24E2E700BF40A000080080E00FD1
:10499000C01753020001E00F30B5094D87B001ACDC
:1049A0000FCD0FC42B6801A823603F238DF805307D
:1049B000FEF71CFD6420FEF77BFD002007B030BD34
:1049C00068A000086FF00402502110B50A480B4C93
:1049D00012F0800FD3B21BBF03F00F03043BA318E8
:1049E0001B1802F101020CBF83F8001319764C2A40
:1049F000EED1002010BD00BF00ED00E000E100E0BE
:104A000010B5044604F0F7FA024B1C6004F0F7FA04
:104A1000002010BDE414002010B504F0ECFA034BA4
:104A20001C6804F0ECFA204610BD00BFE41400201E
:104A30002DE9F0438BB01C4606AB06468946184666
:104A4000174600211022129D04F087FC22790346AC
:104A50000AB18DF818204FF00108FB6163793046E8
:104A6000002B14BF43460223CDE90333764B4A465D
:104A70000293764B2946019300230093744B8DF8E3
:104A80001E8000F0F7FA0646002840F0AF80A368C9
:104A90004146EB63E3693A20EB64237E85F84830B6
:104AA00063696B64237C85F84030636A6B6594F8B6
:104AB000203085F85030E36AEB6594F8283085F8AB
:104AC00058302368AB63FEF723F94346042261693B
:104AD000207CFFF7DDFB43460222E169207EFFF7E1
:104AE000D7FB3E7085F860604146A068FEF710F97C
:104AF0006379002B32D141463620FEF709F9A368CD
:104B0000562B02D0B3F5A06F08D1524AD2F820320A
:104B100023F0070343F00303C2F82032394620682C
:104B2000FFF70EFA1021E2684B4B676903EB421066
:104B3000C0F89414217C253241EA0741C0F8AC1436
:104B4000217EE06903EB421341EA00415960237979
:104B5000032B77D8DFE803F041244E6E3D4AD2F8AC
:104B6000283123F0070343F00103C2F82831A3687A
:104B7000562B02D0B3F5A06F07D1D2F8203223F024
:104B8000070343F00103C2F8203239462068FFF7DB
:104B9000A9F995F8603043F0040385F86030C1E767
:104BA000002795F8603043F0010385F8603000235A
:104BB0000222616A94F82000FFF76AFB616A94F8A8
:104BC0002020E36842EA014241F29C415B0103F18B
:104BD000A04303F570335A5097B90422AB6B0521FB
:104BE00003F5805320681A65FEF724FF30460BB0AA
:104BF000BDE8F08395F8603043F0020385F860303B
:104C000000230422E16A94F82800FFF741FB41F2F7
:104C100094420221E3685B0103F1A04303F5703382
:104C2000995094F82820E16A03F5A55342EA01421D
:104C30001A60D2E795F86030012743F0030385F846
:104C40006030B4E72326D1E7079100087791000888
:104C5000A79100080080005000C0035010B500204C
:104C6000144604F023FA18B1BF21024804F027F9D2
:104C7000204610BD7CA00008302238B5037A0446D7
:104C8000534303F1A04303F58023DD6ED0E90323F2
:104C900013449D4201D8AA4204D94FF43E710548FD
:104CA00004F00DF9D4E9030303449D4218BF2846DC
:104CB00038BD00BFF5A0000830B51446054687B0E2
:104CC0001046FFF7D9FF6369024683423CBFD4E92F
:104CD00003315B181B1AABB112492846039100211E
:104CE000CDE90131012304940093D4E9001304F0C9
:104CF0002FF920B14FF434710B4804F0E0F8002094
:104D000007B030BD0122627694F82D20002AF6D03B
:104D100084F835301321E369204698472046636ABA
:104D20009847ECE7B94C0008F5A000082DE9F047DA
:104D300088B0044688461746994604F063F98246CF
:104D4000002F00F0AB80237E03F0FF02002B00F069
:104D5000DE802046FFF790FF63690546984206D142
:104D6000637E23B940F27F316A4804F0A8F866698F
:104D7000B5429CBFD4E90352AD18AD1BBD4228BF5C
:104D80003D4604F03FF994F82D300646002B40F0E4
:104D900096802A464046616904F0D2FA63692F463C
:104DA0002B4463612CE06069037803F0FD01112955
:104DB00040F08280216B884205D1A3F111014B4262
:104DC0004B4184F83430013F6369216B01328B42DF
:104DD00003F1010308BF236363619542E3D1D4E982
:104DE0000323216B1344994208BF2263216B8A423B
:104DF00001D88B4204D84FF46D71464804F05FF837
:104E0000D4E9032361691344994208BF626161696F
:104E10008A4201D88B4204D84FF471713D4804F0A6
:104E20004EF80023207A6376FDF718FB20B140F29C
:104E30001131384804F043F82046FFF71DFF63693D
:104E400083423FD10023E568237694F82D306561D5
:104E500003B125632046636A98472F4B2A46039384
:104E6000002302932369216801930123207A009390
:104E70000494636804F06CF820B140F22D312548A9
:104E800004F01DF8207AFDF709FB20B140F2513102
:104E9000204804F014F8304604F0BAF85046C9F837
:104EA000007004F0B5F8D9F80030002B0CBF1B20BF
:104EB000002008B0BDE8F08708F8013B84E72F46E2
:104EC00000228AE70123207A23760DF11E01FDF7E7
:104ED0004DFB20B14FF450710E4803F0F0FF9DF8E8
:104EE0001E30002BCED0207A0DF11F01FDF716FBEE
:104EF00020B140F24631074803F0E1FF9DF81F1052
:104F00000029BFD12246207AFFF7D6FEBAE717461E
:104F1000C4E700BFF5A00008B94C000870B504460E
:104F20000568FFF779FD844202D10020FFF768FD94
:104F300095F93630002B11DB012203F01F015B09CC
:104F40009B0003F160438A4003F56143C3F880216D
:104F5000C3F88020BFF34F8FBFF36F8F287AFDF720
:104F6000BDFA20B14FF4ED71104803F0A8FF287A84
:104F7000FDF71AFA20B14FF4EF710C4803F09FFFD0
:104F8000FDF7F0F938B10A4B984204D04FF4F171B3
:104F9000064803F094FF00232846C4E90033C4E91F
:104FA0000433A360AB6ABDE870401847F5A0000861
:104FB000058000F02DE9F84304460D4690F82C805A
:104FC000DFF8AC908E18B54228D094F82D3083B11C
:104FD00004F018F8237E07461BBB226B63699A42D4
:104FE00004D040F2F911484603F069FF384604F056
:104FF0000FF894F83430002BE5D0B8F1000F06D04C
:105000002B780A2B03D10D212046E36998472046CF
:10501000E36915F8011B98470028D4D00020BDE8AB
:10502000F8832046FFF728FEE1680138884238BF40
:105030002069D4F830C03CBF00F1FF30401803466F
:105040009C450BD013F80129112A01D0132A07D14E
:10505000A2F111035A425A4184F834202063C5E773
:10506000994282BF236903F1FF335B18E8E700BF71
:10507000F5A00008F0B50C460646154687B0382264
:10508000002120461F4604F068F995E8030000233C
:105090002A692376EB6884E80300C4E904232A7DA7
:1050A000E36084F82C20AA7D2363012384F8343044
:1050B00084F835300C9B84F82D2023620D9BE7612A
:1050C00063620E9BA3622B7A84F83630204B3460E7
:1050D0007360204BB360204B3361204B7361204BD6
:1050E000F360FDF787F930B11E4B984203D01024CE
:1050F000204607B0F0BD002104F10800FDF702F9D9
:105100000028F4D10127184B0494CDE90203236948
:10511000009701936368E2682168207A03F018FF22
:1051200004460028E3D195F90830002B0BDB03F08F
:105130001F025B099B0003F16043974003F5614345
:10514000C3F880711F603046FFF75AFCD0E700BFFC
:10515000B54F00082D4D00086392000869920008C1
:105160001D4F0008038000F0B94C000830B50F4C0B
:1051700041612368ABB92060836011E0891A9A68A5
:105180001D4641612AB113465A698A42F6D955B182
:105190001A461346A860836013B15A69511A5961BF
:1051A00030BD0025F0E72060F5E700BFF4140020D3
:1051B00010B500F089FA0A4C0A4B19682368C31A23
:1051C00001B10BB9206010BD4A699A423ABF9B1ADF
:1051D0000022D21A4A6128BF00238968F0E700BF85
:1051E000E8140020F414002038B5134D2B685B69D7
:1051F00093B1124A022014681C4404F063F820465C
:1052000000F06AFA00230E492A680B70D0888007E4
:1052100009D501230B7038BD022004F053F8022099
:1052200000F0A8FAEEE79268002AF4D0506903442F
:10523000012BEBD9EFE700BFF4140020E8140020A5
:10524000FA15002070B516469DF81420C0E9033603
:105250000271049ABDF818300260002204460D461F
:105260008260C38006BB00F02FFA2844A0613DB9DC
:10527000E368656113B120462168984796B13546C9
:1052800003F0B9FE0646FFF793FF29462046FFF7D5
:105290006DFF074B1B68A34201D1FFF7A5FF304606
:1052A00003F0ADFE002070BD00F00EFA3044DDE7E3
:1052B000F414002000220C490B687BB183420AD110
:1052C00083687AB1936083681BB15A6941690A4463
:1052D0005A61002070471A469B68EEE70028EFD01D
:1052E000022070470B60EEE7F414002070B503F065
:1052F00089FE144E05463478FCB9134B1C60134BE1
:105300001C60134B1C8000F0ADF9012003F0DAFFA4
:1053100003F0FBFF0F4B0246186020B9284603F04C
:1053200077FE232070BD234640F2E7310A4800F0A3
:1053300023FF0A4B186001233370284603F068FEF0
:105340000020EFE7F9150020F4140020E8140020F5
:105350007C150020F014002018FCFFFFEC14002046
:105360002DE9F0410546F8B103F045FE0F4F064622
:10537000FFF71EFF2846D7F80080FFF79BFF044683
:1053800028B1304603F03BFE2046BDE8F081A84539
:105390003B6803D123B1FFF727FFF2E7002BF0D1E1
:1053A000022000F0D1F9ECE72224EDE7F41400200C
:1053B00038B50C46054698B191B100230B7003F047
:1053C00021FE0121074B1B680BB122781AB103F0B3
:1053D0001FFE002038BDAB4214BF9B682170F3E76D
:1053E0002220F7E7F414002038B5002140F2E7341A
:1053F000054B4FF47A721D680023E5FB00412046FF
:1054000000F0BAFE38BD00BFF0140020012300B543
:105410008DB08DF80F30FFF7E7FF00230146CDE98F
:105420000033074A0DF10F0304A803F023FF18B956
:105430009DF80F30002BFBD10DB05DF804FB00BFD1
:105440006F9200080C4B70B51B680D46834211D358
:1054500040F2E73100248C462146084B4FF47A7223
:105460001E680023E0FB06C1604600F085FE286050
:10547000204670BD2120FCE7EC140020F014002031
:10548000F0B51F46002387B00C46164605468DF83A
:10549000133058B30DF11301FFF78AFF9DF8133055
:1054A00033BB204605A9FFF7CDFFE8B9114B059A9C
:1054B00019684C434FF47A71B4FBF1F301FB1344C8
:1054C00000230C1BEB83A4B2BDF834308C420CBF1C
:1054D000A883AC8302939DF830301146CDE9007368
:1054E00028463346FFF7AEFE07B0F0BD2220FBE7AB
:1054F0000220F9E7F0140020C2072DE9F84F044616
:105500000BD54F4A138801339BB21380FFF750FE2F
:105510004C4B1B680BB1FFF767FEA30740F18E8071
:1055200003F070FD4FF0000A05465646FFF740FEB7
:10553000D046444FDFF814913C680CB163698BB1DD
:105540000022414B012E1A7003D11AF0020F18BF2E
:105550001E70002C62D0FFF747FE2846BDE8F84FCA
:1055600003F056BD23461A792179914288BF1C4623
:105570009B6813B15A69002AF5D0284603F048FD0C
:10558000D4F810A0BAF1000F4CD000F09DF8A26939
:10559000851AEB17AA4578EB030344DA2369134411
:1055A0000122A36123691BB312BBEB17BAEB0505FC
:1055B00063EB4303002B04DA40F22A51484603F020
:1055C0007EFCA38B33B1E28B13449BB2B3F57A7F9D
:1055D0001CD2E38303F016FD824629462046FFF7DE
:1055E000C5FDA369226950461344A36103F010FD71
:1055F000E368B4F806A0013613B120462168984745
:1056000003F000FD0546FFF7D3FD95E7A3F57A7398
:10561000E383A369013D013BA361DBE7022000F0C6
:1056200093F89AE7554603F0EDFC83462046FFF7D2
:1056300041FE584603F0ECFC0022B3E7BDE8F88FCA
:105640007C150020F4140020FB15002064A1000844
:10565000034B5A68D20702D5DA69002AF9D170479C
:1056600000800A5010B50121002486B03E20ADF81C
:105670000810CDE903448DF804408DF80A400594E4
:10568000FDF746FB01A8FFF77DF8204602A98DF83B
:105690000840FFF787F820460F21FFF7B9F80F21E0
:1056A0002046FFF7C3F8FFF74DF8FFF7D1FF0822B8
:1056B000034B9C61034BC3F888219A6006B010BD70
:1056C00000800A5000E100E008B5FFF7C1FF014B80
:1056D000986908BD00800A50F8B5044603F08BFCB9
:1056E000FFF7B6FF164B07469D6903F0E7FD064638
:1056F0000020FFF7A9F8830704D4731B032B01D8FC
:10570000AE420FD10021631B022B98BFEC1C084650
:10571000B4F1FF3F2CBF2246621EFFF7BDF8022006
:1057200003F0D0FD384603F06AFC064A137833B123
:1057300003498B6C43F001038B6400231370F8BDA5
:1057400000800A50F0110020830700F0010109D504
:105750000122064B41F002011A70054A936C23F0B6
:10576000010393640020FFF753B800BFF01100203D
:1057700000800A50830742BF0222014B1A6470471F
:1057800000900A5010B50446FCF730FB4FF47A72D3
:105790009042B0FBF2F105D23621BDE810400C4832
:1057A00003F08DBB0B4BB3FBF1F30B49884201D9DE
:1057B0003C21F2E702FB04F0B0FBF3F0022806D92B
:1057C000BDE810400323B0FBF3F0FAF7D1BC10BDE5
:1057D000D2A1000840420F00E7CD9A3B81F0004182
:1057E00002E000BF83F0004330B54FEA41044FEAC6
:1057F000430594EA050F08BF90EA020F1FBF54EA61
:10580000000C55EA020C7FEA645C7FEA655C00F0FC
:10581000E2804FEA5454D4EB5555B8BF6D420CDDCD
:105820002C4480EA020281EA030382EA000083EA50
:10583000010180EA020281EA0303362D88BF30BDF0
:1058400011F0004F4FEA01314FF4801C4CEA113146
:1058500002D0404261EB410113F0004F4FEA0333A5
:105860004CEA133302D0524263EB430394EA050F30
:1058700000F0A780A4F10104D5F1200E0DDB02FA9F
:105880000EFC22FA05F2801841F1000103FA0EF233
:10589000801843FA05F359410EE0A5F120050EF1F9
:1058A000200E012A03FA0EFC28BF4CF0020C43FA2A
:1058B00005F3C01851EBE37101F0004507D54FF037
:1058C000000EDCF1000C7EEB00006EEB0101B1F587
:1058D000801F1BD3B1F5001F0CD349085FEA3000CD
:1058E0004FEA3C0C04F101044FEA445212F5800FD8
:1058F00080F09A80BCF1004F08BF5FEA500C50F175
:10590000000041EB045141EA050130BD5FEA4C0C57
:10591000404141EB0101013C28BFB1F5801FE9D2B4
:1059200091F0000F04BF01460020B1FA81F308BFD7
:105930002033A3F10B03B3F120020CDA0C3208DDA3
:1059400002F1140CC2F10C0201FA0CF021FA02F17E
:105950000CE002F11402D8BFC2F1200C01FA02F1EE
:1059600020FA0CFCDCBF41EA0C019040E41AA2BF13
:1059700001EB0451294330BD6FEA04041F3C1CDADB
:105980000C340EDC04F11404C4F1200220FA04F0FB
:1059900001FA02F340EA030021FA04F345EA0301A5
:1059A00030BDC4F10C04C4F1200220FA02F001FA67
:1059B00004F340EA0300294630BD21FA04F02946E9
:1059C00030BD94F0000F83F4801306BF81F4801182
:1059D0000134013D4EE77FEA645C18BF7FEA655CF5
:1059E00029D094EA050F08BF90EA020F05D054EAC7
:1059F000000C04BF1946104630BD91EA030F1EBFCC
:105A00000021002030BD5FEA545C05D140004941CF
:105A100028BF41F0004130BD14F580043CBF01F5C2
:105A2000801130BD01F0004545F0FE4141F47001A8
:105A30004FF0000030BD7FEA645C1ABF1946104683
:105A40007FEA655C1CBF0B46024650EA013406BF84
:105A500052EA033591EA030F41F4002130BD00BF43
:105A600090F0000F04BF0021704730B54FF4806400
:105A700004F132044FF000054FF0000150E700BF81
:105A800090F0000F04BF0021704730B54FF48064E0
:105A900004F1320410F0004548BF40424FF00001CD
:105AA0003EE700BF42004FEAE2014FEA31014FEA10
:105AB00002701FBF12F07F4393F07F4F81F060515F
:105AC000704732F07F4208BF704793F07F4F04BFAA
:105AD00041F40021704730B54FF4607401F0004587
